:020000040800F2
:10800000A826002031830008D7E100085384000827
:10801000D5E1000821C60008BDE800080000000006
:1080200000000000000000000000000065E2000801
:1080300045830008000000009F83000867E20008F5
:108040004B8300084B8300084B83000859E200086B
:108050004B8300084B83000851C60008A3C60008E4
:10806000B7C60008CBC60008DFC600084B8300086F
:108070004B8300084B8300084B8300084B830008A8
:108080004B8300084B8300084B830008000000006E
:10809000000000000000000000000000F3C600081F
:1080A0004B8300084B8300084B8300084B83000878
:1080B0004B8300084B8300084B8300084B83000868
:1080C0004B8300084B8300084B8300084B83000858
:1080D0004B8300084DE800084B83000800000000B7
:1080E00065C600084B8300084B83000800000000B1
:1080F0000000000000000000000000004B830008AA
:10810000000000004B830008A9E300084B8300082F
:10811000000000000000000000000000000000005F
:108120004B8300084B8300084B8300084B830008F7
:108130004B83000800000000000000000000000069
:108140000000000000000000000000004B83000859
:108150004B8300084B8300084B83000885E8000828
:108160004B8300084B830008000000000000000063
:1081700000000000000000000000000000000000FF
:10818000000000004B830008000000000000000019
:108190004B83000800F002F800F0BBF80AA090E85A
:1081A000000C82448344AAF10107DA4501D100F0B2
:1081B000B0F8AFF2090EBAE80F0013F0010F18BFC4
:1081C000FB1A43F00103184704F9010024F90100E8
:1081D0000A444FF0000C10F8013B13F0070408BFED
:1081E00010F8014B1D1108BF10F8015B641E05D08B
:1081F00010F8016B641E01F8016BF9D113F0080F40
:108200001EBF10F8014BAD1C0C1B09D16D1E58BFD1
:1082100001F801CBFAD505E014F8016B01F8016B08
:108220006D1EF9D59142D6D370470000002300247B
:1082300000250026103A28BF78C1FBD8520728BF76
:1082400030C148BF0B6070476E2901F05C80702917
:1082500000F0DD8266291BF0C98565291BF0C68503
:1082600067291BF0C38561291BF0C28503681B0ABF
:1082700028BF41F08001692900F04E82642900F096
:108280004B82752900F048826F2901F05C817829C2
:1082900000F0A982E92901F0F780E42901F0F480D7
:1082A000F52901F0F180EF2901F05981F82900F05A
:1082B000A8820368DB0928BF41F08001632901F02F
:1082C0006680732901F06B80E32902F04F81F32966
:1082D00002F05481002070471FB51BF07DFD00F0B7
:1082E0009FFF0400002000211BF042FB401C606047
:1082F000002000211BF052FBE060002000211BF059
:1083000063FB206101F04CFC1FBD10B501F0B1FC16
:1083100010BD02F0ADFF1146FFF7DEFF04F079F962
:1083200003F08CFA03B4FFF7F0FF03BC07F00CFE78
:108330000948804709480047FEE7FEE7FEE7FEE7F9
:10834000FEE7FEE7FEE7FEE7FEE7FEE70448054935
:10835000054A064B704700005DE300089581000860
:10836000A8200020A8260020A8220020A822002063
:10837000EFF3108072B6704780F310887047434A5D
:108380001368012B04D04FF001031360404A1060C2
:10839000404A116040484FF0805101607047EFF350
:1083A000108272B63948016851B34FF00001016084
:1083B0003748016891B1EFF309811EF0100F08BF33
:1083C00021ED108B21E9F00F4FF000041EF0100F8B
:1083D00008BF012441F8044D006801602D49096877
:1083E000096808C9B1E8F00F002B18BFB1EC108B79
:1083F00081F309884EF0100E002B18BF2EF0100EDE
:1084000082F310884EF0040E704722490860EFF3A3
:10841000148222F0040282F314881D494FF00000F8
:1084200008601A494FF0010008601C484FF47F01B2
:10843000D0F8002041EA0201016017484FF0805156
:10844000016017480068006880F3088861B662B66A
:1084500070471EF0040F0CBFEFF30880EFF30980A4
:1084600020E9F00F40F804ED40F804ED1EF0040F91
:108470000CBF80F3088880F3098800B513F0D8F9A1
:108480005DF804EB4EF0040E70470000C00A0020B7
:10849000B80A0020BC0A002004ED00E020ED00E056
:1084A00008ED00E07047000010B500F0B9FE001DB7
:1084B00010BD00BFBDB401007047704753EA020C05
:1084C00000F069802DE9F04B4FF00006002B1FBF34
:1084D000B3FA83F503FA05F424FA05F65E4012BFF9
:1084E0001643B2FA82F502FA05F4C5F120051EBF63
:1084F00022FA05FC44EA0C04203556EA044C4FEA03
:10850000144418BF641C4FF000084FF0000990425B
:1085100071EB030C39D3002919BFB1FA81F701FAC5
:1085200007F6B0FA80F700FA07F6C7F120071EBF7A
:1085300020FA07FC46EA0C062037B6FBF4FCA7EB52
:108540000507103F07F01F0BCBF120060CFA0BFBC1
:108550002CFA06F644BFB3460026202FA4BF5E4681
:108560004FF0000B5BEA060C08BF4FF0010B19EB54
:108570000B09ABFB027C48EB0608C01B06FB02CCD8
:108580000BFB03CC71EB0C01C1E70B4602464146E5
:108590004846BDE8F08B13B54FF000004FF00001E6
:1085A000AFF30080BDE81C40704710B54C1084EA62
:1085B000530404D54042C1F1000138BF491E1B429B
:1085C00004D55242C3F1000338BF5B1EFFF776FFAC
:1085D00014F0804F04D04042C1F1000138BF491E61
:1085E00014F0004F04D05242C3F1000338BF5B1EA9
:1085F00010BD00007CB51D4616460C00009001D051
:108600002044401E074B7B442A4669460190304671
:1086100000F093FE05461CB10020694600F0A0FE64
:1086200028467CBD610D00000FB4044910B503AAB3
:10863000029800F0B9FE10BC5DF814FB2C1F00205E
:108640000FB47CB50C0009AA009001D02044401E54
:10865000084B7B4469460190089800F06EFE054681
:108660001CB10020694600F07BFE28467CBC5DF80A
:1086700014FB0000150D000070B504468569006804
:10868000C10601D5302600E02026C00707D070BD06
:10869000D4E9012130469047206A401C20626D1EBB
:1086A000F6D570BD70B5044685690078C00707D15E
:1086B00070BDD4E9012120209047206A401C20622F
:1086C0006D1EF6D570BD70B50C460546012A05D065
:1086D0002878800600D5EA69002302E0012305E03E
:1086E0005B1C934202D2E05C0028F9D1A869E6182D
:1086F000C01AA861286A184428622846FFF7BCFF00
:1087000004E0D5E9012114F8010B9047B442F8D3F5
:108710002846FFF7C7FF70BD2DE9F041064600244B
:1087200010687529314616A510D000F081FD00288B
:1087300002DA404213A507E031688A0701D512A585
:1087400002E0490704D511A5012401E000F079FDFC
:1087500000210A2206F1240709E0B0FBF2FCB0FB7D
:10876000F2F302FB1C00303078541846491C0028F4
:10877000F3D123462A463046BDE8F04100F06ABDF9
:10878000000000002D0000002B0000002000000071
:10879000F0B40D460188090502D5214C7C4402E065
:1087A0001F4C7C440E34002100F1240608E002F046
:1087B0000F071209E75D42EA03721B097754491C4F
:1087C00052EA0307F3D102780023120704D5702D73
:1087D00006D009B1022311342246F0BC00F03ABDA4
:1087E00001231034F8E770B504460D4621461068A1
:1087F00000F027FD024629462046BDE870400023D0
:10880000C6E7D21D22F00703D3E90023C0E70368BF
:10881000126843F0200303600823C3610023B7E715
:1088200021D101002DE9F05F894604464FF0000A8E
:10883000DFF874B1FB44C0F820A02046E168884707
:10884000002874D0252806D0D4E901219047206A59
:10885000401C2062F1E700265F462046E168884719
:108860002028054607DB312D05D2781910F8200C99
:1088700008B10643F1E7B00701D526F00406C4F8B5
:108880001CA00027C4F818A02A2D09D0284606F0FD
:1088900055F938B304EB8708303DC8F8185019E093
:1088A00059F8041B204604EB87029161E168884770
:1088B000012F054618D1E069002820DA26F02006AD
:1088C0001DE0D8F8180000EB800005EB40003038C0
:1088D000C8F818002046E1688847054606F02EF9DA
:1088E0000028EED1012F0AD02E2D08D12046E168B4
:1088F00088477F1C0546022F46F02006C4DBA0698E
:10890000002803DA404246F00106A061F00701D0DA
:1089100026F010066C2D0BD0682D09D04C2D39D0C7
:108920006A2D35D0742D35D07A2D33D016E038E04D
:10893000E1682F4620468847B842054609D16C2F8A
:1089400026D04FF48060E1680643204688470546FC
:1089500004E06C2F1AD04FF4807006430DB3A5F1DC
:108960004100192802D8203546F400664A462946B7
:10897000204626604E46FFF767FC80B101280BD0E9
:10898000F61D26F0070000F1080956E74020E4E74D
:108990008020D8E70020D6E706F104094DE72846F5
:1089A00052E7206ABDE8F09FB1D0010000B58DB05C
:1089B000099000920B904FF0FF300A9000200C902D
:1089C000054878440690054878446A46079009A807
:1089D00000F000FF0DB000BD2F0E0000470E00009C
:1089E0000FB400B58DB010A9099000910B904FF015
:1089F000FF300A9000200C90064878440690064804
:108A000078446A4607900F9909A800F0E3FE0DB07C
:108A10005DF814FBF70D00000F0E00002DE9FF5F5D
:108A20001D464FF0FF3B91464FF000085F46D5E9E9
:108A30000146A96901987F1C8847296A82468847B0
:108A40000028F6D1BAF1FF3F0CD0002E24F4C06408
:108A500019DD600614D5BAF12B0F09D0BAF12D0F2C
:108A60000ED103E0584604B0BDE8F09F44F48064A2
:108A7000A96901987F1C8847761E8246002E02DD78
:108A8000BAF1300F03D0B9F1000F26D032E0A96956
:108A9000761E01987F1C44F400748847002E82469D
:108AA00005DDBAF1780F06D0BAF1580F03D0B9F14D
:108AB000000F10D01EE0B9F1000F02D0B9F1100F75
:108AC00018D1A969761E01987F1C24F40074884788
:108AD0008246102002E0082000E00A20814609E0DA
:108AE000A96908FB0908761E01987F1C44F40074EC
:108AF00088478246002E05DD4946504600F03AFD83
:108B00000028EDDAE96901988847A00502D46FF0E2
:108B10000100A8E7E00725D1600613D5600502D55E
:108B2000C8F1000000E0404629680A1D2A60096873
:108B3000220501D5087015E0220701D5088011E053
:108B400008600FE02868011D29600068210502D532
:108B500080F8008006E0210702D5A0F8008001E03F
:108B6000C0F8008038467EE770B5064600F05CFB32
:108B70000468054630460A22002100F00FF82C60F8
:108B800070BD70B5064600F04FFB046805463046E0
:108B90000A22002100F002F82C6070BD2DE9F04798
:108BA00091460F4680460446002614F8015B2DB11D
:108BB000FFF77AFC0068405DC007F6D12B2D02D08C
:108BC0002D2D18D0641E4A463946204600F032FE4C
:108BD00027B13968A14201D1C7F800804FF00204E3
:108BE00071050BD54042002803DD00F01DFB046039
:108BF000A007BDE8F08746F48066E4E70028F8DACD
:108C000000F012FB04606FF00040F2E70EF006B8CF
:108C1000401ECAB210F8011F8A4202D00029F9D1C1
:108C20000020704730B505460B462A4613F8014B25
:108C300012F8010B08B1A042F8D01CB1002802D0F4
:108C40006D1CF1E7284630BD40EA010310B59B07D3
:108C50000FD1042A0DD310C808C9121F9C42F8D0A6
:108C600020BA19BA884201D9012010BD4FF0FF3057
:108C700010BD1AB1D30703D0521C07E0002010BD6D
:108C800010F8013B11F8014B1B1B07D110F8013BF9
:108C900011F8014B1B1B01D1921EF1D1184610BDDA
:108CA00040EA0103024630B59B0710D14FF0013472
:108CB00000E008C208C91D1B9D4315EAC41FF8D077
:108CC00013F0FF0102F8011B0DD01B0AF8E711F8A1
:108CD000013B002B02F8013B05D011F8013B002BB2
:108CE00002F8013BF3D130BD0022CBB210F8011BDA
:108CF000994200D1421E0029F8D11046704710B5A4
:108D0000431C02E010F8011B71B18107FAD14FF04A
:108D1000013202C88C1A8C4314EAC211F9D0C01A6D
:108D20000A0603D0C01E10BDC01A10BD0A0401D02F
:108D3000801E10BD0902FCD0401E10BD40EA010398
:108D400070B59B072ED14FF00136042A2AD308C8EC
:108D500010C99D1B9D43121F15EAC61517D0D8B226
:108D6000E1B2401A50EA056110D198B2A1B2401A9E
:108D700050EA05410AD123F07F4024F07F41401A98
:108D800050EA052102D1180EA0EB146070BDA34279
:108D9000DBD018BA21BA884201D9012070BD4FF04A
:108DA000FF3070BD0AB9002070BD10F8013B11F80A
:108DB000014B63B1A3420AD1521E08D010F8013B07
:108DC00011F8014B1BB1A34201D1521EEDD1181B6A
:108DD00070BD421E12F8013F002BFBD111F8013B80
:108DE000002B02F8013BF9D17047032A40F2308092
:108DF00010F0030C00F0158011F8013BBCF1020FDC
:108E0000624498BF11F801CB00F8013B38BF11F85C
:108E1000013BA2F1040298BF00F801CB38BF00F873
:108E2000013B11F0030300F02580083AC0F00880F0
:108E300051F8043B083A51F804CBA0E80810F5E7D4
:108E4000121D5CBF51F8043B40F8043BAFF30080B7
:108E5000D20724BF11F8013B11F801CB48BF11F82C
:108E6000012B24BF00F8013B00F801CB48BF00F8FC
:108E7000012B704710B5203AC0F00B80B1E81850B4
:108E8000203AA0E81850B1E81850A0E81850BFF4F4
:108E9000F5AF5FEA027C24BFB1E81850A0E8185093
:108EA00044BF18C918C0BDE810405FEA827C24BFE7
:108EB00051F8043B40F8043B08BF7047D20728BF75
:108EC00031F8023B48BF11F8012B28BF20F8023BC4
:108ED00048BF00F8012B704702F0FF0343EA03226A
:108EE00042EA024200F002B84FF000020429C0F04A
:108EF000128010F0030C00F01B80CCF1040CBCF1CC
:108F0000020F18BF00F8012BA8BF20F8022BA1EB1D
:108F10000C0100F00DB85FEAC17C24BF00F8012B02
:108F200000F8012B48BF00F8012B70474FF00002FA
:108F300000B5134694469646203922BFA0E80C504F
:108F4000A0E80C50B1F12001BFF4F7AF090728BF2A
:108F5000A0E80C5048BF0CC05DF804EB890028BFA6
:108F600040F8042B08BF704748BF20F8022B11F0CF
:108F7000804F18BF00F8012B704710B5044610F061
:108F8000030F08BF11F0030F40F015804FF0013EB2
:108F9000121FC0F20E8051F8043BA3EB0E0C2CEA1A
:108FA000030C1CEACE1C08BF40F8043BF0D0A1F132
:108FB000040102F10402521E08DB11F8013B002BF0
:108FC00000F8013BF7D11146FFF78EFF204610BD98
:108FD0004FF0013C50F8042B51F8043B9A4221D148
:108FE000A2EB0C03934313EACC1317D150F8042BD4
:108FF00051F8043B9A4215D1A2EB0C03934313EAB8
:10900000CC130BD150F8042B51F8043B9A4209D1F0
:10901000A2EB0C03934313EACC13DBD04FF0000018
:10902000704700BFD01A01BAB1FA81F101F01801FE
:1090300022FA01F0CB40C1F12001DBB2C0B2C01A6C
:109040002CFA01F3D11A914311EAC311E6D170470A
:1090500010B500F005F8BDE8104000F03DBE00007E
:10906000014900F03FBE0000D41F002010B5036886
:109070001C1404EB21449BB289B2194494FBF2F313
:1090800002FB134394FBF2F401EB034393FBF2F175
:1090900002FB113193FBF2F301E05B1E1144002946
:1090A000FBDB016003EB044010BDF0B504464FF05C
:1090B000FF3585B00068049060680290A068039056
:1090C000E068019020690090666906F18040B0F187
:1090D000004F7CD83C22002104A8FFF7C7FF3C22A8
:1090E000014602A8FFF7C2FF1822014603A8FFF7B6
:1090F000BDFF411E40F2B55201A8FFF7B7FF0C2299
:10910000074668460021FFF7B1FF414B00EB87009F
:10911000304400267B4411E0511A01910099491C0A
:109120000229009102D00C2908D105E0810705D061
:109130000199491C019101E0401C00960099019A97
:10914000595C9142E8DD0099012906D11C2A04D11D
:10915000810702D00221CDE90016A0F146018B293A
:109160003CD2DDE90061002202E09F5C521C3944E0
:10917000B242FADB012E02DD820700D0491E40F226
:10918000B55340F26D16C21700EB927292105A431B
:1091900000F0030303FB062283070A4400D1521E9A
:1091A000039E02EB4203049F06EBC303029EC3EB44
:1091B000031306EB8303174E33441E149BB2C6EB16
:1091C0000616C3EB0313B60007EB830300E005E0CC
:1091D00006EB134666F31F43360C02D0284605B053
:1091E000F0BD80C4029E40C4039E40C4019E761C14
:1091F00044F80C6B009E44E902600720521C92FB6D
:10920000F0F600FB162084E823001846E7E700008C
:10921000ECC70100A039CEFD7047704770470000D1
:109220000048704764200020004870474420002018
:1092300009684A0501D540B27047C905FCD500B29E
:10924000704709684A0501D5C0B27047C905FCD509
:1092500080B270472DE9F0470D4699469246044684
:1092600000F124080168880604D5E06921F01001A6
:10927000216000E00120A84201DD471B00E000273B
:10928000A1697A1902EB0900081AA0612078C006CA
:1092900002D42046FFF7F0F9002608E0D4E90121C6
:1092A0001AF806009047206A401C761C20624E4542
:1092B000F4DB2078C0060AD52046FFF7DDF906E08A
:1092C000D4E9012130209047206A401C2062381EDA
:1092D000A7F10107F4DC07E0D4E9012118F8050043
:1092E0009047206A401C2062281EA5F10105F3DC8E
:1092F0002046FFF7D7F92078000602D50220BDE806
:10930000F0870120FBE711680268006A530501D568
:1093100008700AE0D30501D5088006E0130603D5DE
:10932000C217C1E9000200E0086001207047000098
:1093300001694A1C02610878704700B58FB0CDE919
:1093400001310021059105497944CDE90310114609
:109350006846FFF767FA0FB000BD0000E5FFFFFFAA
:109360000A6802F8010B0A607047D1E900239A42AB
:1093700002D2531C0B601070704710B5436913B1D3
:10938000AFF3008001E0FFF79EF9012010BD1278D5
:1093900000F124010A7000224A700122EDE71168F1
:1093A0004FF0FF32E9E70000074B70B50D467B44F4
:1093B000FFF7C3FF0446284601F0FFFC10B14FF051
:1093C000FF3070BD204670BDF3DC00002DE9FF5F6B
:1093D00015468A460446DFF8AC80F8440027D8E9F1
:1093E00000103E46CDE9001010E03AF816106A462B
:1093F00002A801F0E1FE411C07D02178890603D5BF
:10940000E269391891420DD80744761C207880060D
:1094100002D5E069B84205DDAE42E6DB3AF8160057
:109420000028E2D1A069C01BA0612046FFF724F903
:10943000D8E90010CDE90010002017E03AF8181024
:109440006A4602A801F0B8FEB0F1FF3F81460BD09A
:1094500000250DF1080B05E0D4E901211BF80500FA
:1094600090476D1C4D45F7D308F10100B04280468E
:10947000E4DB206A384420622046FFF713F9BDE898
:10948000FF9F00001EC501002DE9F0418046D21D5E
:1094900022F007020025D2E90002F52915A614D012
:1094A000011E72F1000106DA0023D0EB030063EB2A
:1094B000020211A608E0D8F800108B0701D50FA60C
:1094C00002E0490701D50EA601251146002408F146
:1094D000240704E000F066FC30323A55641C50EA80
:1094E0000102F7D12B46324621464046BDE8F04105
:1094F000FFF7B0BE000000002D0000002B000000B0
:109500002000000030B4002100F1240408E002F043
:109510000705D208303542EA4372DB086554491C1E
:1095200052EA0305F3D10468002310A2250707D5EA
:10953000A40600D421B1C46901230DA2641EC46134
:1095400030BCFFF787BE10B5044621461068FFF710
:1095500078FE02462046BDE810400023D2E7D21D27
:1095600022F00701D1E90023CCE700000000000051
:10957000300000003A2800D2303820F02002412A82
:1095800001D3A2F13700884201D34FF0FF3070477A
:109590002DE9FF4F1C4691464FF0FF3581B0002169
:1095A0008A468846D4E90167A16902986D1C8847FC
:1095B000216A834688470028F6D1BBF1FF3F0CD0D3
:1095C000002F26F4C0661ADD700615D5BBF12B0FEF
:1095D0000AD0BBF12D0F0FD104E04FF0FF3005B0E2
:1095E000BDE8F08F46F48066A16902986D1C88473B
:1095F0007F1E8346002F02DDBBF1300F03D0B9F18F
:10960000000F2AD025E0A1696D1C02987F1E46F448
:1096100000768847002F834605DDBBF1780F06D022
:10962000BBF1580F03D0B9F1000F10D011E0B9F120
:10963000000F02D0B9F1100F0BD1A1696D1C029877
:109640007F1E26F4007688478346102000E008201D
:1096500081464FEAE970009017E00A20F8E7434698
:10966000AAFB0928DDF800C07F1E03FB098046F431
:10967000007605F101050AFB0C0112EB0B0A0298BA
:1096800041EBEB78A16988478346002F06DD494608
:109690005846FFF76FFF5FEA000BE0D5E1690298DB
:1096A0008847B00502D46FF0010098E7F00718D1A1
:1096B000700610D55146700505D50023D1EB030186
:1096C00063EB080200E042462068031D2360006847
:1096D000C0E9001205E02068011D21600068C0E9B2
:1096E00000A828467BE72DE9FF5F4FF00008994668
:1096F000144646469169D2E901A7DDF838B00198D1
:109700008847054659EA0B0005D009E0A169019890
:10971000761C88470546216A284688470028F5D1E7
:10972000681C03D05FEACA7005D015E04FF0FF3027
:1097300004B0BDE8F09F2068011D2160D0F80080D2
:109740000AE05FEACA7001D108F8015BA169761CE2
:1097500001987F1E88470546002F1ADD681C18D027
:10976000B9F1000F0DD0E81705EBD060421120F0E1
:109770001F0059F822102A1A012090400142E0D11E
:1097800007E0BBF1000FDCD12846216A884700289A
:10979000D7D0E16901988847BBF1000F07D1002EAF
:1097A00005DD5FEACA7002D1002188F80010A068C8
:1097B000B84203DDBBF1000F03D017B16FF0010019
:1097C000B6E73046B4E70000026811441378016040
:1097D00018467047D160054979445161044979447C
:1097E000116200211161114600F0CCBEEDFFFFFFB8
:1097F0004D060000426842B1016811F8013B23B1F7
:10980000521EC0E90012184670470121C160881E2F
:10981000704742685AB1C368016843B983688B4294
:1098200005D0491E521CC0E90012002070474FF0BD
:10983000FF3070472DE9F05F824615468B460027C2
:109840000AF10104B9460078302801D09DB113E037
:1098500014F8010B0127782803D0582801D045B10E
:109860000AE00DB1102D07D1002714F8010B1025C7
:1098700002E0082500E00A250026B0460EE005FBC0
:10988000080005FB06F101271FFA80F801EB1046DE
:10989000B6F5803F00D3B94614F8010B2946FFF70F
:1098A00069FE0028EBDABBF1000F05D00FB1641E92
:1098B00000E05446CBF80040B9F1000F06D0FFF7A6
:1098C000B3FC02210160C81EBDE8F09F48EA0640D3
:1098D000FAE72DE9FF4F4FF000089A461446C146BB
:1098E000464683B0D2E901B7CDF80080CDF80480B8
:1098F000916904988847109905465AEA010005D0F5
:1099000009E0A1690498761C88470546216A284623
:1099100088470028F5D1681C03D05FEACB7005D0DA
:109920002AE04FF0FF3007B0BDE8F08F2068011D3E
:109930002160D0F800801FE002A86A46E9B201F079
:109940001DFC411C07D0801C09D04FF000095FEAC4
:10995000CB7007D00AE0E169049888473EE04FF0F9
:10996000010904E0BDF8081028F8021B7F1EA16958
:109970000498761C88470546002F1ADD681C18D00D
:10998000BAF1000F0DD0E81705EBD060421120F0BE
:109990001F005AF822102A1A012090400142CBD110
:1099A00007E010980028C7D12846216A8847002878
:1099B000C2D0E16904988847B9F1000F0ED1109820
:1099C00030B9002E04DD5FEACB7001D1A8F80000A9
:1099D000A068B84202DD109818B117B16FF001000D
:1099E000A1E730469FE72DE9FF4F4FF000089B4667
:1099F0001446454683B0D2E90196CDF80080CDF8F3
:109A000004809169DDF848A00498884707465BEA1E
:109A10000A0005D009E0A16904986D1C8847074633
:109A2000216A384688470028F5D1781C03D05FEAC0
:109A3000C97005D01BE04FF0FF3007B0BDE8F08FD4
:109A40002068011D2160D0F8008010E05FEAC97035
:109A500007D16A464046B9B201F0AEFB411C31D095
:109A60008044A1696D1C0498761E88470746002E25
:109A700014DD781C12D0BBF1000007D03B46DDE9B5
:109A8000101201F08BF90028E0D107E0BAF1000FC5
:109A9000DCD13846216A88470028D7D0E16904988C
:109AA0008847BAF1000F06D1002D04DD5FEAC970C6
:109AB00001D188F80000A068B04203DDBAF1000FC0
:109AC00003D016B16FF00100B7E72846B5E72DE9DE
:109AD000FF5F9B46144600273D469169D2E90196F7
:109AE000DDF840A00198884780465BEA0A0005D06F
:109AF00009E0A16901986D1C88478046216A4046AB
:109B000088470028F5D1B8F1FF3F03D05FEAC9705C
:109B100005D014E04FF0FF3004B0BDE8F09F20689E
:109B2000011D216007680AE05FEAC97001D127F8CA
:109B3000028BA1696D1C0198761E88478046002E15
:109B400015DDB8F1FF3F12D0BBF1000007D043464E
:109B5000DDE90E1201F022F90028E5D107E0BAF1A3
:109B6000000FE1D14046216A88470028DCD0E16936
:109B700001988847BAF1000F05D1002D03DD5FEA97
:109B8000C97000D13880A068B04203DDBAF1000F7F
:109B900003D016B16FF00100BEE72846BCE7000015
:109BA00010B542485421FFF7C1F941485421FFF74D
:109BB000BDF940485421FFF7B9F93F493B483C4AB9
:109BC0003F4B08603D490A603A491960531C0365E0
:109BD000481C1065012008653B48344A39A1784487
:109BE00001F030FA20B9384878440A3801F004FB13
:109BF00037482F4A35A1784401F024FA20B9344877
:109C000078440A3801F0F8FA32482A4A2FA17844F9
:109C100001F018FA20B92F4878440A3801F0ECFA1C
:109C200040232248DC000021224601F0E7F920B160
:109C300025487844543801F0DFFA1D482246402375
:109C4000002101F0DBF920B121487844543801F0BB
:109C5000D3FA184822461023002101F0CFF900283A
:109C600006D01C487844BDE81040563801F0C4BA0C
:109C700010BD104870B5006D20F001040B4801F0D4
:109C800057FA0B4801F054FA0A4801F051FA09E07A
:109C9000206D20F00105204601F04AFA20460DF023
:109CA0000EFA2C46002CF3D170BD0000D81E002007
:109CB0002C1F0020801F00204C0C0020500C002086
:109CC000540C002072000000B8B8010077000000BA
:109CD000A6B8010095B80100014901F095BA00004D
:109CE0000020002070B50C46016800204A1C3ED0C0
:109CF0003C22B1FBF2F302FB1313B1FBF2F1236040
:109D0000B1FBF2F302FB1313B1FBF2F11822636013
:109D1000B1FBF2F302FB1313B1FBF2F146F2E032B6
:109D20000A440721A360B2FBF1F301FB132140F2C7
:109D3000B553B2FBF3F5A161B2FBF3F103FB1522BE
:109D40008900B2F5B77F08D39B10521EB2FBF3F522
:109D50002944B2FBF3F503FB15220F4BE26161616D
:109D600089077B440CD03B2A0AD3521C08E02C21E3
:109D70002046FFF7DBF80120E0600AE0521A401CA1
:109D8000195C9142FAD9521CC4E903204FF0FF300C
:109D90002062204670BD00009EBB01000048704755
:109DA0004420002030B5B0F10A024FEA900E71F164
:109DB00000034EEA817EB0EB0E0061EB91014FEAA9
:109DC000101E4EEA017E10EB0E0041EB11114FEA1E
:109DD000102E4EEA016E10EB0E0041EB11214FEAFE
:109DE000104E4EEA014E10EB0E0041EB11414018AF
:109DF00041F100014FEAD00040EA41704FEAD10141
:109E000010EB80054FEA810444EA907444EB0104AE
:109E10006D1944EB0404521BA3414FF0000348BFEB
:109E20000A3200D530BD401C41F1000130BD10B5F3
:109E30000446FEF739FB0068005D00F0010010BD2C
:109E400070472DE9FF4F0C461E464FF0FF378BB091
:109E5000D2E90001DDF860800A908A46C1F30A5514
:109E600005B93D46002108464FF00000BAF1000F49
:109E700000F4400005DA00EB80004FF4400101EAF5
:109E800050004FEA9059B9F1010F00DDB9460A9828
:109E900050EA4A000ED044F61050A5F2FF35454373
:109EA0002F14B8F1000F1ED07542291E1EDDC9F116
:109EB00000021CE0B8F1010F4FF0000001D030218A
:109EC00003E0F24305E02154401CB042FBDB304686
:109ED0000022002121540B99C1F80880C1E900201B
:109EE0000FB0BDE8F08FBD1B6D1CDEE74A4600DAFF
:109EF000694206A801F038FA06AB93E8070003AB05
:109F000083E8070050460A9901F075FF8DE80700C5
:109F1000A0F500501F3800900398002D09DD42F293
:109F20001F014A46084403A90390684602F0FFF95E
:109F300008E0A0F500504A461F3803A90390684680
:109F400002F01DFA8DE807000004000C03D04FF06A
:109F5000FF30410800E01046B8F1000F03D00022A6
:109F6000009215461EE0751E05D4FFF71BFF303228
:109F700062556D1EF9D5B3460122084302D0002276
:109F80007F1C04E02078302801D100227F1E002AA7
:109F9000099786D01DE0112D07DAFFF703FF303255
:109FA00062556D1C50EA0102F5D1084302D00098B9
:109FB000C8B10EE00021681E05E0235C625C6354BA
:109FC0002254401E491C8142F7DBAB46A81B401EB1
:109FD0000990002004F80B000B98099AC0F808803B
:109FE000C0E9002B7CE711264FF0000859E72DE966
:109FF000F04F88460446D21D22F0070191B0D1E906
:10A000000001CDE90A0104F05AFC02460B98C00F8A
:10A0100001D02D2007E02068810701D52B2002E028
:10A02000202101EAC000032A099001D0072A05DB9C
:10A0300003464146204601F057F90BE1207880069F
:10A0400001D5E06900E00620B8F1650F814606D031
:10A05000B8F1660F18D0B8F1670F70D131E0002069
:10A06000B9F1110F009001DB112301E009F10103A7
:10A070000AAA01A90CA8FFF7E4FEDDE90C7000268E
:10A0800009F10105834647E001204B4600904FF05F
:10A0900000470AAA01A90CA8FFF7D3FEDDE90DB01D
:10A0A0000C995D46002610B909F101000D18B9EBB5
:10A0B000050003D4C0F1FF3609F10105A5EB090045
:10A0C0002BE0B9F1010F01DA4FF001090020B9F1DD
:10A0D000110F0090484601DD112300E003460AAA53
:10A0E00001A90CA8FFF7ADFEDDE90C704D46002676
:10A0F0008346207800070AD4AB4500DA5D4601A804
:10A10000012D04DD411911F8011C302907D04F45FC
:10A1100002DA17F1040F04DA012082460FE06D1E07
:10A12000EEE7002F02DCED1B3E4403E0781CA84262
:10A1300000DD7D1CB81B00F1010A4FF000472078BC
:10A14000000703D4AA4501DB4FF0FF3A0021B7F125
:10A15000004F0DF143088DF8431024D002202B232B
:10A16000002F01DA7F422D230A21021EA0F10100F7
:10A1700000DC5FB197FBF1FC97FBF1F201FB1C7C6B
:10A1800017460CF1300C08F801CDEEE7A8F10100FC
:10A1900003702188090501D5452100E06521A0F162
:10A1A000010800F8011C09980FA9A1EB0807FF1D81
:10A1B00000B10120411901EBEA70A1693844081A85
:10A1C000401EA0612078C00602D42046FEF754FA53
:10A1D000099828B1D4E901219047206A401C2062E7
:10A1E0002078C00622D52046FEF746FA1EE0002E53
:10A1F00004DBB34502DD01A8805D00E03020D4E936
:10A2000001219047206A401C2062761CAAF10100BF
:10A210005FEA000A0AD1FFF703F8C0680168405CF2
:10A22000D4E901219047206A401C2062281EA5F134
:10A230000105DCDC07E0D4E9012118F8010B9047A7
:10A24000206A401C2062381EA7F10107F3DC20467B
:10A25000FEF728FA032011B043E600002DE9F04F85
:10A2600004460D46D21D22F0070089B0D0E90097C0
:10A270004846394604F023FB0246F80F01D02D234F
:10A2800007E02068810701D52B2302E0202101EAA5
:10A29000C0038DF820300BB1012000E00020032A1C
:10A2A000824601D0072A04DB2946204601F01CF82B
:10A2B0003FE12078800601D40D2500E0E569C7F371
:10A2C0000A560D2D49DA00214FEA175B08464FF078
:10A2D0000000002F00F4400007DA00EB80004FF48C
:10A2E000400100EBD07001EA60008115012901DD19
:10A2F0004FF0FF3100224FEA850CBCF1180F06D356
:10A300001346ACF118004FF08052C24003E04FF406
:10A31000801323FA0CF30CF10C0CBCF1200F04D3C6
:10A32000ACF1200C09FA0CF001E007FA0CF000295E
:10A330004FF0004801DD18B90FE00ED140450CD3B5
:10A3400019EB02095F4121B9404502D19F4329EA37
:10A350000209BBEB175F00D0761C2088000502D5F0
:10A360007B48784402E07A487844193808AA3023B8
:10A3700002F80A30037C0AF10101002E0AF1020AF8
:10A3800053546A4602DC4FF0300101E04FF03101D6
:10A390004FF001088DF8001002D0A6F2FF3603E05E
:10A3A00059EA470100D06B4E002D02DC21780907E5
:10A3B00004D54FF002082E218DF80110C44600216B
:10A3C0000BE0C7F303433F01C35C491C6D1E02F859
:10A3D0000830052908F1010801DA002DF1DC00211F
:10A3E0000CE000EB1973491C1B786D1E082902F85C
:10A3F00008304FEA091908F1010801DA002DF0DCF4
:10A4000021688B0602D516E0A8F10108E04505DDBC
:10A4100002EB080313F8013C302BF5D0B8F1000F24
:10A4200009DD02EB080313F8013C2E2B03D10907C9
:10A4300001D4A8F10108002D05DD3E2102F8081025
:10A440006D1E08F10108407C002E02F8080008F19A
:10A45000010804DA2D20764202F8080002E02B20E1
:10A4600002F808000A214FF47A70864208F10108C8
:10A470000BDB96FBF0F3303302F8083096FBF0F379
:10A4800008F1010800FB136601E0642E0CDB642078
:10A4900096FBF0F3303302F8083096FBF0F308F146
:10A4A000010800FB136601E00A2E06DB96FBF1F0C3
:10A4B000303002F8080008F1010896FBF1F001FBCA
:10A4C0001060303002F80800A16908F1010808EBBB
:10A4D000050202EB0A00081AA0612078C00602D427
:10A4E0002046FEF7C9F8216A08AE01EB0A00206297
:10A4F00004E0D4E9012116F8010B9047BAF1010AF2
:10A50000F7D22078C00602D52046FEF7B5F86E4691
:10A5100009E016F8010B3E280FD0D4E9012190473D
:10A52000206A401C2062B8F10108F2D22046FEF7F2
:10A53000B9F809B00320BDE8F08F206A28442062F2
:10A5400003E0D4E90121302090476D1EEBD3F8E7FA
:10A55000BDB5010002FCFFFF10B5436913B1AFF3B5
:10A56000008001E0FEF732FF012010BD128800F1EB
:10A57000240182840022C2840122EDE711684FF099
:10A58000FF32E9E72DE9F34F4FF0000A0C4656463B
:10A590008DB001200C9001F10C000B9062690B98BA
:10A5A00001219047051E2DD0252D2CD0216A8847EA
:10A5B000C0B162690B9801219047216A8847002841
:10A5C000F7D16269411E0B98904700E0761CA169A3
:10A5D0000D988847216A88470028F7D1E1690D98CE
:10A5E0008847DBE7A1690D988847A842074601D153
:10A5F000761CD3E7E1690D9888477F1C02D1BAF138
:10A60000000F6FD06BE162690B9800273D46394619
:10A6100090472A2804D162690B98012190470125AF
:10A62000DFF8D08262690B9801219047A0F13001D8
:10A630000A290AD24745E5DC07EB870100EB410711
:10A64000303FDFD445F01005ECE7E90601D46FF0A8
:10A6500000476C280AD04C2814D0682815D06A28E6
:10A660000DD074281CD07A281AD01DE062690B988E
:10A67000012190476C2802D045F0040514E045F014
:10A6800002050DE045F020050AE062690B98012102
:10A690009047682802D045F0080505E045F40065BC
:10A6A00062690B9801219047C4E9015765283DD0A4
:10A6B00019DC58287AD00CDC452837D004DC252852
:10A6C00026D041289ED131E046282FD0472899D165
:10A6D0002CE05B2877D0612828D063287CD06428C0
:10A6E00023D15AE0F6E06F2848D008DC66281DD058
:10A6F00067281BD0692821D06E2816D127E0702842
:10A7000045D0732868D0752847D078280DD14DE002
:10A71000A1690D988847252805463FF469AFE1698E
:10A720000D9888476D1C3FF46AAFD8E00D99234619
:10A730006A466FF0010019F0BDFBC5E045F040002E
:10A7400023464FF000026060A80736D43EE0E807D9
:10A750007FF447AF2068011D21600068290501D5FD
:10A7600006701BE7290701D5068017E7A90703D55F
:10A77000F117C0E9006111E706600FE745F04000FE
:10A7800023464FF008026060A80716D41EE040F68A
:10A790000E0125EA0100606016E045F04000234606
:10A7A0004FF00A026060A80707D40FE045F04000B0
:10A7B0006060A80708D5234610220D996FF00100AC
:10A7C000FEF7E6FE80E007E0102223460D996FF0C9
:10A7D0000100FEF723F977E04FF0000963284F46A8
:10A7E000C8464B46CB4602D05B2806D038E0E80688
:10A7F00001D40120A060012732E06269D4F80CB0D6
:10A800000B98012190475E2807D14FF00109494676
:10A810006269D4F80CB00B989047216939B90021CE
:10A820000A4603AB43F82120491C0829FADBD8B3B8
:10A83000216949B308F1010862690B980121904729
:10A840005D28F4D1B9F1000F09D0002003A951F817
:10A850002020D24341F82020401C0828F7DB03AB1E
:10A860002069002820794FEA40701ED05B462246BE
:10A87000CDF80080CDE901970D9900286FF0010017
:10A8800020DAFFF724F91FE0C11703AA00EBD1611A
:10A890004B1121F01F0102EB8302411A13680120C2
:10A8A000884003431360C7E719E00D99224600284A
:10A8B0006FF00100009702DAFFF70BF804E0FEF7F3
:10A8C00012FF01E0FFF78FF800280ADA401C06D1DA
:10A8D0000C9820B14FF0FF300FB0BDE8F08F50461C
:10A8E000FAE7E90701D10AF1010A064400200C90B9
:10A8F00054E60000CCCCCC0C2DE9FF4F064689B0C5
:10A900000878FF2806D0491C2D2805D000244FF0D8
:10A91000000908E000200CE00124F8E709EB8903B6
:10A92000491C00EB43090878FF28F7D114B1C9F19D
:10A9300000008146107800252C46AA4629462D287D
:10A9400001D02B2804D1521C2D2813D00020824680
:10A950008B461078FF280FD04FF0000C0A21521CB4
:10A96000A5FB017804FB018105FB0C11C5194BEB1C
:10A970000104EEE70120EAE7002108464FF000005D
:10A98000BAF1000F02D000EB80004008C0F38158FC
:10A99000B8F1010F01DD4FF0FF380C9809EB00070B
:10A9A00055EA040009D04FF0020917F5FA7F0BDAD7
:10A9B0004FEACA70C6E900B012E04FEACA70C6E9B1
:10A9C00000B00DB0BDE8F08FB7F5FA7F0DDDF048AF
:10A9D0007844D0E90010C6E9001040EACA707060FF
:10A9E000FEF722FCC0F80090EBE7391E02DAC8F14E
:10A9F000000200E0424600DA794206A800F0B4FC0A
:10AA000006AB93E8070003AB83E8070044F23E007F
:10AA10005BEA04010090584604D144F21E012C4622
:10AA20005D460091210C0904014306D100992404DC
:10AA300044EA15442D041039009104F07F4101438C
:10AA400006D10099240244EA15642D0208390091C8
:10AA500004F07041014306D10099240144EA1574C1
:10AA60002D01091F009104F04041014306D10099D6
:10AA7000A40044EA9574AD00891E009104F00041E1
:10AA8000084304D100986D196441401E009042466D
:10AA90006846002FCDE9014503A902DD01F083FCE2
:10AAA00001E001F058FCBAF1000F04460D4601D058
:10AAB00084F0004440F2FF7724F00040284303D0A4
:10AAC000C4F30A50B84212D1FEF7AEFBC0F80090B2
:10AAD000C4F30A50B8420AD1AE487844D0E9001015
:10AAE000C6E9001004F000410843706069E7C6E958
:10AAF000005466E72DE9FF4F1F464FF0000A4FF064
:10AB0000FF38454691B0D7E90146CDF83CA0FEF7A5
:10AB100087FBC0680168405C1090B96912986D1C91
:10AB20008847396A814688470028F6D1B9F1FF3F46
:10AB30000AD0002E24F4D06411DDB9F12B0F08D017
:10AB4000B9F12D0F0BD102E0404615B03AE744F4BD
:10AB50008064B96912986D1C8847761E814660052D
:10AB600004A901D52D2000E02B20002E01F1010BBE
:10AB70000DF130088DF810003FDDB9F1690F08D0F4
:10AB8000B9F1490F05D0B9F16E0F02D0B9F14E0FEE
:10AB90001CD13B4601A8009580E85002DDE9121265
:10ABA0006FF0020019F08AF9C11CCED10EE0B9692C
:10ABB00012986D1C884781461398761E44F40074E1
:10ABC00005600F98401C002E0F9016DDB9F1300F74
:10ABD000EDD0B9F1780F02D0B9F1580F0DD10F981F
:10ABE00001280AD13B46CDE90054DDE91212001FCD
:10ABF000029619F061F9C11CA7D1109989453ED17F
:10AC000044F0800406E01399681CAAF1010A44F498
:10AC100000740860B9696D1C1298761E8847302848
:10AC20008146F0D02BE01099894505D1200603D448
:10AC3000761E44F0800418E0484603F07FFF08B316
:10AC4000761E0DF123018B4544F4007408D2A9F15E
:10AC500030000BF8010B200607D5AAF1010003E034
:10AC6000200602D40AF101008246A00502D51399FC
:10AC7000681C0860B96912986D1C88478146002ECF
:10AC8000D1DC53E0002E51DDB9F1650F02D0B9F1EE
:10AC9000450F4BD1A00549D5B9696D1C1298761E98
:10ACA00024F440748847002E81460CDD2B2804D004
:10ACB000B9F12D0F07D144F48074B96912986D1C55
:10ACC0008847761E8146E00501D52D2100E02B2125
:10ACD00008F8011BCDF8008021E0761E0DF1390146
:10ACE000884544F400740CD2A9F1300010F0FF0044
:10ACF00088F8000002D10099884509D908F10108B7
:10AD000006E0E00501D5244801E042F20F708246DA
:10AD1000B96912986D1C8847814613980560002E0A
:10AD200004DD484603F00AFF0028D6D1F9691298DD
:10AD30008847FF2053468BF8000088F80000002069
:10AD40000A900B9004AA0CA90AA8FFF7D5FDA0054C
:10AD500002D46FF00100F8E614F0240F0AD0E007E7
:10AD600014D13868DDE90A12031D3B600068C0E9B0
:10AD700000120BE00AA9684603F042FEE00705D185
:10AD80003868009A011D3960006802602846DCE6D8
:10AD900018D101000ED00100F1D8FFFF10B508E076
:10ADA00030F8024B9C4204D10AB1002010BD0120B2
:10ADB00010BD491EF4D2104610BD007B00F080008B
:10ADC000704770B50D4601461446D36850692A464F
:10ADD00005F0FEF8002807DA411C07D0E16820F0F2
:10ADE000004041F48041E160281A70BD204600F027
:10ADF00091FC4FF0FF3070BDC1680022026021F469
:10AE0000805141F0400111F4C06FC16001D08260F7
:10AE1000704702694168891AC269891A816070475E
:10AE20002DE9F0470446C06840F48000E06001036B
:10AE300012D520F40020E060810606D4E26A616841
:10AE40008A4200D80A46511A216040F40010E0609E
:10AE500094F82500BDE8F08720F40010E06080063B
:10AE600002D5204600F0ADFCE06842F281014FF0CF
:10AE7000FF390140012903D0204600F04BFCB6E029
:10AE80002168002600290ADAC94340F48050216075
:10AE9000C4E902606068411C61600078DAE744F24E
:10AEA000400108420CD020F4A04040F04000266051
:10AEB000E06021696068401AE169401AA06096E08C
:10AEC000216991B9C00310D4E0690DF01BFC206129
:10AED000B0B1E06840F4006010F4407FE06002D15F
:10AEE00040F48070E06020696060E068D4F814A0ED
:10AEF000C1061AD5C0030ED5204600F03FFC14E071
:10AF000004F1240020610120E061E06820F4407039
:10AF100040F48060E6E721696068401AA169014455
:10AF2000504605F06CF80028A6DBE068C0032AD57F
:10AF30006168E06A884200D808462169451AE069DC
:10AF4000471B1BD02046D4F8188000F017FC08EBF4
:10AF500005015046C4F8188005F051F800288BDB35
:10AF6000E06840F40030E060000202D5A0692844A7
:10AF7000A061E1692069C91B45180DE0204600F079
:10AF8000FDFBE769F5E725696168D4E90607491B18
:10AF9000E56208446560A061E06820F0100010F4EC
:10AFA000C06FE06002D0204600F02CFCE06840F466
:10AFB0008050C4E90260000205D52069E06260604B
:10AFC0006FF0010046E7224639462846FFF7F9FEB2
:10AFD000411C0CD02918E16258B1401E2060681C49
:10AFE0006060E06840F40030E060287832E748466E
:10AFF00030E765602046FFF7FFFEF8E770B5C468EC
:10B00000A50713D0650211D4B2F5807F09D0B2F53F
:10B01000007F06D0B2F5806F08D1012300F1240132
:10B0200006E05D1E6FF07F46B54201D3012070BD82
:10B030000161C361416024F470611143C16000206B
:10B0400070BD00002DE9F0410C460746164610463B
:10B0500000F06EF82078611C61280AD0722802D0B6
:10B0600077283CD102E00125002405E002250424D4
:10B0700002E0082448F2020511F8010B2B2806D043
:10B08000622809D011F8010C74280AD00BE045F0B1
:10B09000030544F00204EFE745F0040544F0010421
:10B0A000EAE744F010043846214604F053FF411CFF
:10B0B00015D00021316171604FF40071F560F161CC
:10B0C0007061200704D530460222002100F0A6FA64
:10B0D000306D40F0010030653046BDE8F081002061
:10B0E000FBE72DE9F0410D460646104C206DC107E7
:10B0F00004D0410804D020F00104F7E722460EE016
:10B1000054200DF0FFFA07000ED0206D47F001012A
:10B110000843542120653846FDF708FF3A46294682
:10B120003046BDE8F0418DE70020D6E7D81E00206C
:10B130002DE9F04704464FF000094FF0FF37C5688E
:10B14000D4E90486A80707D0204600F017FB304654
:10B1500004F0F4FE002802DA3846BDE8F08728053E
:10B1600002D540460BF0ABFF4C212046FDF7DEFE3A
:10B17000206D20F0010020654846EEE770B51646C8
:10B180000C460546FDF790F9036893F80101012884
:10B1900004D0185D68B101202C8070BDD3F8030184
:10B1A0003246214603F2031303442846BDE87040AB
:10B1B00018474FF0FF3070BD70B516460C46054677
:10B1C000FDF772F9036893F80101012806D0FF2CFE
:10B1D0000FD8185D68B101202C7070BDD3F807013D
:10B1E0003246214603F2071303442846BDE8704067
:10B1F00018474FF0FF3070BD10B500F02DFBBDE8D3
:10B20000104000F024BB0000F0B50D46044685B0A8
:10B21000FEF706F8006994E8C0106369016803F25C
:10B220006C730A188168CDE90363CDE901C7E3684F
:10B2300001440093C66A2369406A03FB0613A169AF
:10B2400001FB0022284603A100F038F805B028468B
:10B25000F0BD0000257320257325336420252E3290
:10B26000643A252E32643A252E32642025640A0081
:10B270007546FEF793FDAE4605006946534620F03D
:10B280000700854618B020B5FDF760F8BDE82040FE
:10B290004FF000064FF000074FF000084FF0000B92
:10B2A00021F00701AC46ACE8C009ACE8C009ACE845
:10B2B000C009ACE8C0098D46704700000FB41CB54A
:10B2C000084B06AA7B44694600900598FEF735F8BE
:10B2D000044600206946FEF743F820461CBC5DF892
:10B2E00014FB000099E0FFFF2DE9F0411F460446E2
:10B2F00003260168072A01F4006004DB08B116A5E3
:10B3000005E016A503E008B115A500E015A521F09C
:10B3100010002060A069C01EA0610FB1401EA06196
:10B320002046FDF7A9F94FB1D4E9012138469047ED
:10B33000206A401C2062C01C206206E0206AFAE7F6
:10B34000D4E9012115F8010B9047761EF8D220466A
:10B35000FDF7A8F9BDE8F0814E414E006E616E0028
:10B36000494E4600696E66002DE9F0478146164653
:10B370008AB0334878440DC88DE80D0030487844D1
:10B38000801C03AC0DC884E80D0041F69B300844D6
:10B39000372190FBF1F290FBF1F5A5F1800501FB5F
:10B3A00012041B3C02D56442012000E00020DFF8BB
:10B3B00090A080460027FA44AAF1BE0A0DE0E007FB
:10B3C00009D03246684607EB47010AEB810100F0DD
:10B3D000D6FF8DE8070064107F1C002CEFD1184FBA
:10B3E0007F44AC3F18E0E80714D007EB04100DF1E0
:10B3F000180A90E80E008AE80E00C068F04201D1F9
:10B4000098190890324606A903A800F0B8FF03ABCC
:10B4100083E807006D10641C002DE4D132466946B4
:10B42000B8F1000F03A802D000F081FF01E000F0A6
:10B43000A6FFC9E90001C9F808200AB0BDE8F087F5
:10B440003CA601002DE9F04705460C46C86820F4EB
:10B45000201040F48000C860800602D5084600F045
:10B46000B0F9E06841F282014FF0FF390140022952
:10B4700003D0204600F04EF9B5E000F42041B1F5CC
:10B48000004F0FD1C00306D56168E06A884200D83A
:10B490000846606006E02069E0626060606904F070
:10B4A00054FDA061A0680022EEB200280DDAE16828
:10B4B0008B050AD4C043A06041F490302260E06064
:10B4C0006068411C61600670A5E0E06890462260FB
:10B4D00040F40050E060206968BB606904F038FD0A
:10B4E000012704F12405A0B1A08910F4407F08D001
:10B4F000E0690DF007F9206118B1E06840F40060E0
:10B5000016E0E7612561E06820F4407040F4806057
:10B510000EE0E0690DF0F6F800282061F1D0E06857
:10B5200040F4006010F4407FE06002D140F480708D
:10B53000E06020696060E06825696FF0010AC1057C
:10B540001FD56168E06A884200D80846411B04D0D4
:10B550002246284600F0E8F8F0BBE068010203D577
:10B56000E562C4E9015854E0691CE1626160E16987
:10B5700040F48030491EC4E9021030462E70BDE808
:10B58000F087010202D500F480320AE06068411CB5
:10B5900061600670E0680A2E40F48030E06006D0FA
:10B5A0000022E16A6068814203D90B4602E0012271
:10B5B000F7E70346A7895B1B7F0503D4E7699F4232
:10B5C00000DDE2B1814200D80146E5620F1AC4E90C
:10B5D0000158002B09DD00E005E022461946284607
:10B5E00000F0A2F808B14846C9E747B1A069E56292
:10B5F0006560C01BA061E06840F01000E060E0689A
:10B60000000208D56168A069E562491B08446560CD
:10B61000A0615046B3E73046B1E700002DE9F041A4
:10B62000044616460D464769007B80072ED03846F3
:10B6300004F08EFC50BB3EB3012E02D0022E25D169
:10B6400004E0204600F08AFB05441DE0384604F083
:10B650007CFCE168002841F01001E16005DA204639
:10B6600000F058F80120BDE8F081C9030BD56268ED
:10B67000E16A914200D81146A26911442269891AEF
:10B68000814200DD08460544002D01DA0220EAE788
:10B69000E16A6068E268814206D29103E06203D504
:10B6A00022F4003141F01002A6690027AE4213DCFB
:10B6B000E16A814201D90B4600E0034603EB060C28
:10B6C0002369ACEB030CAC4506DD814201D98C4605
:10B6D00000E084469C4505D1A760276042F0200029
:10B6E000A5620DE0AD1BE669AE1B8142A66000D9E4
:10B6F0000846C01A281A20605819606022F02000FD
:10B7000003490840E060002084F84870ABE700007F
:10B71000BFCFD7FFC16821F4001141F08001C160A3
:10B7200000218160016070472DE9F0478146144691
:10B730000E464FF0FF383248D5685769054209D0A8
:10B740003846A16904F05BFC002811DB2C48C0439B
:10B750000540E5602B4632464946384604F057FC22
:10B76000A16920F00042B21A11440028A16103D05F
:10B770002046FFF7CFFF4046BDE8F08770B504468E
:10B780000569C06A6168884200D80846E16821F40A
:10B790002011E160C90312D5A84208D02246411BFE
:10B7A0002846FFF7C1FF10B14FF0FF3070BD0020F9
:10B7B000E562C4E90150E06820F48030E0600020D8
:10B7C00070BD10B50446C06820F02000E060A16A9A
:10B7D000A06988420DD02046FFF7D0FFE06820F432
:10B7E000405040F01000E060A06AA0612069E06273
:10B7F000606044F24001E0688843E06010BD0000F2
:10B800001000020070B5054640F202260A4C0FE017
:10B8100094F85000C00708D0AC4206D0E06836EA81
:10B82000000002D1204600F067FA206D20F00104EC
:10B83000002CEDD170BD0000D81E002010B50446CC
:10B84000AFF300802046BDE81040FCF76BBD002838
:10B8500001D004F079BB704710B5014602A000F09A
:10B860009EFA012010BD00005349475254524544EE
:10B870003A2052656469726563743A2063616E2789
:10B8800074206F70656E3A200000000010B5FDF75F
:10B89000CBFC006810BD10B50446FDF7C5FC046084
:10B8A00010BD00002DE9FF4F1F464FF03C0987B047
:10B8B0004FF00042DDE9141001F10108DDF858A055
:10B8C00002EA405003900020059083460546044656
:10B8D0000490B969461E08988847AAF1010A0290A7
:10B8E000BAF1000F3BDD02982E2815D01021FDF78C
:10B8F00041FE00282EDB4FF0010B0599014317D0C4
:10B90000B9F1000F0BDB4A46C11700F061FA05439D
:10B910000C43A9F1040905E0012004900BE008B1F3
:10B9200045F0010501200590049820B9361D02E07C
:10B93000049800B1361FB969089808F101088847D2
:10B94000BBF1000FAAF1010A0290C9D00999C1F810
:10B950000080C5E70298702808D0502806D0F96901
:10B9600008988847BBF1000F14D04FE000200290E8
:10B970000120BBF1000F049009D0B969089808F1C3
:10B9800001088847AAF10109B9F1000F07DCF9693C
:10B99000089888476FF001000BB0BDE8F08F2B28A6
:10B9A00004D02D280CD14FF0FF300490B9690898CD
:10B9B00008F101088847A9F10109B9F1000FE6DD96
:10B9C000411CE4D00A21FDF7D5FD0028DFDB0299F8
:10B9D00008F1010801EB810100EB41000290B96917
:10B9E000089888470A21FDF7C5FD099AA9F10109C0
:10B9F000B9F1000FC2F8008001DD0028E7DAF9692B
:10BA0000089888470499029800FB016655EA0400EB
:10BA100004D004F04041090002D006E0039898E009
:10BA2000A40044EA9574AD00B61E04F0004108007D
:10BA300002D16D196441761E159810F0240F03D0C1
:10BA40004FF00B095C4803E04FF028096FF07D00D0
:10BA50008246564507DAAAEB06018944B9F1410F3F
:10BA600001DD4FF0410901200021A9F1010200F0A0
:10BA7000AFF9024628400B462140084301D001217E
:10BA800000E00021501E029143F1FF312840214087
:10BA9000084301D0012000E000200299834651EACA
:10BAA0000B014FD0002108464FF00000039900F42D
:10BAB000400039B100EB80004FF4400100EBD07042
:10BAC00001EA60008015012802DD4FF0FF3000E040
:10BAD00013D0401C36D0029860B3BBF1000F0CD1DC
:10BAE0004A460120002100F073F928402140084314
:10BAF00001D0012000E00020E0B101204A460021F1
:10BB000000F066F9034640190A4661412D1A8C413E
:10BB100011D3B9F1400F09DD159810F0240F02D0B0
:10BB2000AAF1340603E0AAF1170600E0761C00250E
:10BB30004FF0004406E05B1E42F1FF3220EA0305AD
:10BB400021EA0204CAF10100B04206DA1B49039857
:10BB500008430190002000900EE0039AC4F3D32123
:10BB6000E80A0A43164940EA44500A433146CDE9FF
:10BB70000002684602F0C2FF159810F0240F0BD0A7
:10BB80001598C00715D13868DDE90012031D3B6028
:10BB90000068C0E900120CE002A8694602F030FF1C
:10BBA0001598C00705D13868029A011D39600068F0
:10BBB00002604046F0E6000002FCFFFF0000F07F5C
:10BBC0000000F03F2DE9FF4F92461D4685B04FF033
:10BBD0000041DDE9124BDDE914727F1E01EA4B5092
:10BBE000414940F0FF4940EA0108002122F02000CD
:10BBF0004928049102D04E2828D04CE03BA00126D1
:10BC000007C88DE80700A9690698641C88477F1E4D
:10BC1000014606D41DF8060018B121F0200181422A
:10BC20000BD0E96906988847032E34D0082E32D00D
:10BC30006FF0010009B0BDE8F08F761C032E01D033
:10BC4000082EE0D1601CCAF80000DCE7A96906985C
:10BC5000641C88477F1E2AD420F02000412826D16A
:10BC6000A9690698641C88477F1E20D420F0200014
:10BC70004E281CD1A9690698641C88477F1E48F489
:10BC8000002849F48009CAF8004001D4282806D0C9
:10BC9000E969069888475FEACB7012D022E0A9696B
:10BCA0000698641C88477F1E01D4002803DAE969DE
:10BCB00006988847BCE72928F1D1641CCAF80040DF
:10BCC000E9E71BF0240F07D028680499031D2B60B7
:10BCD0000068C0E9001805E02868021D2A600068B5
:10BCE000C0F800902046A5E70000F07F494E464985
:10BCF0004E4954590000000070B50446C0688107E1
:10BD000013D0800601D5A56A04E0A16960680844E3
:10BD10002169451A2046FFF731FD002206462946D3
:10BD20002046FFF77BFC304670BD002070BD70B52B
:10BD300010B1BDE87040DFE70025074C6E1E07E03C
:10BD40002046FFF7D9FF00B13546206D20F00104F1
:10BD5000002CF5D1284670BDD81E002010B5014634
:10BD6000C268900703D0900607D5886A0AE0FDF7FD
:10BD70005BFA01210160881E10BD8B694868184478
:10BD80000B69C01A91F848301BB191F84910401A5C
:10BD900010BD1103FCD50028FADD401E10BD70B5A2
:10BDA00005460C460A2000E06D1C04F047F935B149
:10BDB00028780028F8D102E0641C04F03FF914B19F
:10BDC00020780028F8D1BDE870400A2004F036B988
:10BDD000B2F120030AD5C2F1200301FA02F120FAE0
:10BDE00003F300FA02F041EA0301704700FA03F19D
:10BDF0004FF0000070475FEA400C08BF91F0000F61
:10BE00004FEA8C234FEAC12243EA51514FEA1C50BA
:10BE100018BF00F5F0404FEA300018BF41F0004174
:10BE20005FEA6C5C00F02980BCF1FF3F08BF40F086
:10BE300080407047130C06BF12044FF0100C4FF0F7
:10BE4000000C130E04BF12020CF1080C130F04BFF8
:10BE500012010CF1040C930F04BF92000CF1020CC0
:10BE6000D30F04BF52000CF1010C11464FF0000239
:10BE7000A0F11F00A0EB0C00704711F0004F08BFAD
:10BE8000704731F000413FF4D5AF0B0C06BF0904F9
:10BE90004FF0100C4FF0000C0B0E04BF09020CF118
:10BEA000080C0B0F04BF09010CF1040C8B0F04BF2D
:10BEB00089000CF1020CCB0F04BF49000CF1010CFE
:10BEC000CCF12003A0EB0C0022FA03F302FA0CF2EF
:10BED00041EA030100F10100704720F07F4C80EA45
:10BEE000030023F07F47ACEB070303F57C5300F01E
:10BEF000004003F1FF032DE980494FEA154B09B4D7
:10BF00004FEA144325EA0B4E24EA03480FF20426B5
:10BF100006EB132749083E785FEA320203FB066707
:10BF2000C7F5000707FB06F64FEA54374FEAD64637
:10BF300006F1020607FB066CCCF1005C4FEA1C47D9
:10BF40002CEA074C07FB06F40CFB06F504EB154640
:10BF50004FEA961634BF00204FF000404FEAD13729
:10BF600006FB07FC4FEA1C4C0CFB0BF7D21B03FB38
:10BF70000CF761EB07010CFB0EF7B0EB074072EB1F
:10BF800017420CFB08F734BFA2EB0742B2EB0742A3
:10BF900061EB17414FEA0C444FEA910706FB07FC9F
:10BFA0004FEA1C4C0CFB0BF7B0EBC74072EB57325F
:10BFB00003FB0CF734BFA2EBC742B2EBC74261EB05
:10BFC00057310CFB0EF7B0EBC70072EB57720CFB4E
:10BFD00008F734BFA2EBC702B2EBC70261EB57719F
:10BFE000039F4FEA816141EA921104EBCC044FEACE
:10BFF000D1374FEA826206FB07FC42EA90124FEA11
:10C0000080604FEA1C4C0CFB0BF7D21B03FB0CF7B8
:10C0100061EB07010CFB0EF7B0EB074072EB174228
:10C020000CFB08F734BFA2EB0742B2EB074261EB0F
:10C0300017414FEA8C554FEA910704EB9C2406FB0D
:10C0400007FC4FEA1C4C0CFB0BF7B0EBC74072EB44
:10C05000573203FB0CF734BFA2EBC742B2EBC74227
:10C0600061EB57310CFB0EF7B0EBC70072EB577268
:10C070000CFB08F734BFA2EBC702B2EBC70261EBBF
:10C08000577115EB4C254FEA816141EA92114FEA55
:10C0900082624FEAD13742EA901206FB07FC44F174
:10C0A00000044FEA80604FEA1C4C0CFB0BF7D21BDC
:10C0B00003FB0CF761EB07010CFB0EF7B0EB07403D
:10C0C00072EB17420CFB08F734BFA2EB0742B2EB4E
:10C0D000074261EB174115EB1C154FEA813141EA2C
:10C0E00092414FEA823242EA90424FEA80304FEA70
:10C0F0000C7644F1000448EA03434EEA0B484FF043
:10C10000000EB2EB080C71EB030724BF6246394600
:10C110004EEB0E0E4FF0000B0018524149414BEB15
:10C120000B0BB2EB080C71EB03077BF1000B24BF88
:10C13000624639464EEB0E0E4FF0000B001852418E
:10C1400049414BEB0B0BB2EB080C71EB03077BF196
:10C15000000B24BF624639464EEB0E0E51EA020731
:10C1600018BF46F0010616EB0E7655F1000254F1A9
:10C17000000103D5BDE88901BDE80088BDE889015B
:10C18000BDE80048B619524141EB0101A3F101039A
:10C19000704780807F7E7D7C7B7A79787776767534
:10C1A0007473727171706F6E6E6D6C6C6B6A6A69AC
:10C1B0006868676666656464636362616160605F46
:10C1C0005F5E5E5D5D5C5C5B5B5A5A5959585857BF
:10C1D0005756565555555454535352525251515027
:10C1E00050504F4F4F4E4E4D4D4D4C4C4C4B4B4B7A
:10C1F0004A4A4A49494948484847474747464646C0
:10C2000045454544444444434343434242424241FA
:10C210004141000046EA0646A3F570534FEA164630
:10C2200046EA42564FEAD22242EA415210B54FEA5C
:10C23000D121A3F1010300F017F820F0004000F134
:10C24000010C00F0004701EB00501146BCF5006FF7
:10C2500040EA070000D210BD02484FF0000140EA5A
:10C26000070010BD0000F07F002B26D4770021D0FE
:10C270001CB54FEA370703B44FF010004FF0100120
:10C280004FF000000FBCBDE810400BF1010BBBF1FB
:10C29000010F08BF5FEA170722BF12F1010211F177
:10C2A00001014FF0004143F1000300F0004043EA78
:10C2B00000007047F9D35708DAE746EA064613F15B
:10C2C000400F4FEA16461FDD13F1200FDFBF164364
:10C2D0000A46002120335B42C8D0C3F1200746EA5A
:10C2E000064602FA07F74FEA164646EA0706C3F182
:10C2F000200722FA03F201FA07F721FA03F14FF0BF
:10C30000000342EA0702B1E746EA020646EA0646A9
:10C310004FEA164646EA0106BCBF46EA0646360C18
:10C320004FF000034FF000024FF000019EE72DE9AF
:10C33000C048934630B491E8380007C831EA400C51
:10C3400048BF34EA430C03D5FFF7C7FDFFF78CFF66
:10C35000F0BCBDE800882DE9C048934630B491E8B0
:10C36000380007C831EA400C48BF34EA430C03D513
:10C37000FFF7B3FDFFF74EFFF0BCBDE800882DE9E5
:10C38000C048934630B491E8380007C810F0804F99
:10C3900008BF13F0804F03D100F019F8FFF764FFD6
:10C3A000F0BCBDE800882DE9C048934630B491E860
:10C3B000380007C810F0804F08BF13F0804F03D13A
:10C3C00000F005F8FFF726FFF0BCBDE8008820F07C
:10C3D0007F4780EA030023F07F4C07EB0C03A3F5B3
:10C3E0007C5300F00040A3F1FE0392F0000F00F038
:10C3F000B38095F0000F00F077802DE901494FEAF6
:10C4000011404FEA144621EA004800FB06FC24EAEA
:10C41000064708FB06F607FB08F800FB07F718EBD2
:10C4200006484CEB164C4FEA124B18EB07484FEA04
:10C4300015464CEB174022EA0B4E0BFB06FC25EA97
:10C4400006470EFB06F607FB0EFE0BFB07F71EEB7F
:10C45000064E4CEB164C4FF000061EEB074E4CEB15
:10C46000174B18EB0B0840F1000018EB0E0B58EBC4
:10C47000000840F100008F1A4FF000013CBFC94393
:10C48000661B14BFB5EB040C00213CBFC943F61B6F
:10C490004FEA17444EEA8E0E27EA04454FEA1C473E
:10C4A00004FB07622CEA074C05FB07F70CFB05F6BB
:10C4B00004FB0CFC16EB074642EB174216EB0C464E
:10C4C00042EB1C421BEB060658EB0202414146EAD6
:10C4D0009E0601D5BDE80189B619524141EB010123
:10C4E000A3F10103BDE801894FEA14454FEA114762
:10C4F00024EA054621EA074C05FB07F406FB07F78B
:10C500000CFB06F105FB0CFC11EB074144EB174457
:10C510004FEA124711EB0C4144EB1C4422EA074C52
:10C5200005FB07F206FB07F70CFB06F605FB0CFC08
:10C5300016EB074642EB174216EB0C4642EB1C4546
:10C540006A1854F1000148BF7047B619524141EBD7
:10C550000101A3F10103704795F0000F37D04FEAB6
:10C5600011424FEA144721EA024624EA074C02FB33
:10C5700007F106FB07F70CFB06F402FB0CFC14EBBF
:10C58000074441EB17414FEA154714EB0C4441EBCC
:10C590001C4125EA074C02FB07F506FB07F70CFBDD
:10C5A00006F602FB0CFC16EB074645EB174516EBAF
:10C5B0000C4645EB1C42121951F1000148BF70476F
:10C5C000B619524141EB0101A3F1010370474FEA53
:10C5D00014454FEA114724EA054621EA074C05FBBA
:10C5E00007F106FB07F70CFB06F24FF0000605FB10
:10C5F0000CFC12EB074241EB174112EB0C4251EBE2
:10C600001C4148BF7047921841EB0101A3F101039F
:10C61000704710B5FBF7ACFE13F053F8002010BDC7
:10C62000FEE7000010B502460020084C08E012F8B2
:10C63000013B83EA102334F8133083EA002080B2F0
:10C640000B1EA1F10101F2DC10BD0000AE56020884
:10C6500010B50FF08DFB012000F0D4FABDE81040BA
:10C660000FF09EBB10B50FF083FB4FF4806000F01D
:10C67000C9FA4FF4006000F0C5FA4FF4805000F0A2
:10C68000C1FA4FF4005000F0BDFA4FF4804000F0C2
:10C69000B9FA4FF4004000F0B5FABDE810400FF0D1
:10C6A0007FBB10B50FF064FB022000F0ABFABDE8D1
:10C6B00010400FF075BB10B50FF05AFB042000F0CE
:10C6C000A1FABDE810400FF06BBB10B50FF050FBA6
:10C6D000082000F097FABDE810400FF061BB10B5DC
:10C6E0000FF046FB102000F08DFABDE810400FF06F
:10C6F00057BB10B50FF03CFB202000F083FA402020
:10C7000000F080FA802000F07DFA4FF4807000F095
:10C7100079FA4FF4007000F075FABDE810400FF0A0
:10C720003FBB0000002229B101291AD002291BD0E9
:10C730004FF440720E490B6823F440730B600B6892
:10C7400013430B600A6822F0F8020A600A680223A9
:10C7500003EBC00002430A60086840F480300860C0
:10C7600070474FF48072E5E74FF40072E2E7000093
:10C77000103C02401348016889050FD5016821F477
:10C7800000710160016841F400610160016821F4F9
:10C7900000610160016841F40071016001684905B0
:10C7A0000FD5016821F480610160016841F4805176
:10C7B0000160016821F480510160016841F48061E9
:10C7C00001607047003C024008490A6822F4407248
:10C7D0000A600A6842F004020A600A684FF4803373
:10C7E00043EA002002430A6070470000103C024008
:10C7F000064A136823F440731360136813601368C8
:10C8000043F001031360017070470000103C0240C8
:10C81000084910B50C6824F440740C600C6844F4AA
:10C8200040740C600C6844F001040C6002604360CA
:10C8300010BD0000103C0240074A136823F4407307
:10C840001360136843F480731360136843F00103AB
:10C850001360018070470000103C0240074A1368D3
:10C8600023F440731360136843F400731360136878
:10C8700043F001031360016070470000103C024068
:10C880001C490868C2061C4805D5C26942F010025E
:10C89000C26110220A600A68920605D5C26942F098
:10C8A0000802C26120220A600A68520605D5C269E0
:10C8B00042F00402C26140220A600A68120605D5ED
:10C8C000C26942F00202C26180220A600A68D2058F
:10C8D00006D5C26942F00102C2614FF480720A605B
:10C8E0000A68920705D5C26942F02002C26102209F
:10C8F000086070470C3C0240D014002070B511490C
:10C9000004460020C86100F05DFA05460E4E09E0BD
:10C91000601C07D024B100F055FA401BA04201D999
:10C92000032070BD3068C003F2D43068C00701D066
:10C9300001203060306810F4F970F2D0FFF7A0FFEA
:10C94000012070BDD01400200C3C02402DE9F843BA
:10C950002D480026016841F001010160016801F0E5
:10C9600001010091016841F002010160016801F0DC
:10C9700002010091016841F0040101600068234C4C
:10C9800000F004000090012003256060C4E9020566
:10C990000720206021461E4800F040F944F207407D
:10C9A000DFF8709020602146484600F037F940F2E9
:10C9B0003F30194F20602146384600F02FF9012200
:10C9C0001102384600F0F9F94FF400780022414690
:10C9D000384600F0F2F90A2011F008FF0122414622
:10C9E000384600F0EAF901229103484600F0E5F9E3
:10C9F0004FF40040C4E90006C4E9026521464846F8
:10CA0000BDE8F84300F00AB930380240580C002065
:10CA100000000240000402400008024001460020DD
:10CA2000A1F100624FF480439A4204D30F4A0A44B2
:10CA30009A4201D2012070470D4A0A449A4201D21B
:10CA4000022070470B4A0A449A4201D203207047E1
:10CA5000094A0A44B2F5803F01D204207047074AD0
:10CA60001144B1F5003FF9D20520704700C0FFF72F
:10CA70000080FFF70040FFF70000FFF70000FEF71F
:10CA80002DE9F047044622480E46017E01290AD0CE
:10CA90000121804601764CF250394846FFF72EFFBF
:10CAA000020003D02FE00220BDE8F0874FF0FF30F6
:10CAB00030602068174F012801D0A5681CE0207C59
:10CAC0006168FFF781FE4846FFF718FF02463868A5
:10CAD00020F00400386014E0217C2846FFF722FE95
:10CAE0004846FFF70BFF0200386820F0FA00386074
:10CAF00001D0356005E06D1CD4E902100844A8425D
:10CB0000EAD8FFF737FE002188F818101046CBE767
:10CB1000D0140020103C02400348016841F000415D
:10CB20000160002070470000103C02402DE9F047F2
:10CB30001B4E05461446307E1F468946012808D004
:10CB4000012030764CF250384046FFF7D7FE18B13E
:10CB500014E00220BDE8F0879DB1012D16D0022D12
:10CB600019D022463B464846FFF752FE4046FFF7A3
:10CB7000C5FE0C490A6822F001020A6000213176E4
:10CB8000E8E7E1B24846FFF733FEEFE7A1B24846D7
:10CB9000FFF752FEEAE721464846FFF75FFEE5E76A
:10CBA000D0140020103C0240074900200A68002AE7
:10CBB00009DA054A054B0C3A1360054B1360096806
:10CBC000002900DA01207047103C0240230167452C
:10CBD000AB89EFCD0021012303FA01F2824202D09A
:10CBE000491C1029F8DB102909D0054801EB410147
:10CBF00000EB81004168002901D080680847704738
:10CC0000A4070020044910B50A68024202D0086057
:10CC1000FFF7E0FF10BD0000143C01402DE9F84F84
:10CC2000DFF86C91002209F1040A0AF1040B4FF0BD
:10CC30000F080BF1040E01260B6896403340B342F7
:10CC400071D14C68022C01D0122C11D1D40800EB08
:10CC500084073D6A5407E40E08FA04FC25EA0C0533
:10CC6000D1F810C00CFA04FC4CEA050CC7F820C03F
:10CC700007685400032591F804C0A5400CF0030C8C
:10CC8000AF430CFA04FC4CEA070CC0F800C04F6834
:10CC9000012F05D0022F03D0112F01D0122F11D157
:10CCA0008768D1F80CC0AF430CFA04FC4CEA070CBF
:10CCB000C0F808C04768B7430E79C6F3001696401F
:10CCC0003E434660C668AE438D68A5403543C560A7
:10CCD0004C68E40056D52F4C256845F48045256006
:10CCE000246822F0030504F4804400942A4C2E1991
:10CCF000D6F808789407250F08FA05F4A743274CBF
:10CD0000A04201D1002415E0254CA04201D101240C
:10CD100010E0244CA04201D102240BE0224CA0429E
:10CD200002D1032406E02DE0204CA04201D10424CE
:10CD300000E00724AC403C43C6F80848D9F800405E
:10CD40004D464E689C43F60300D51C432C60DAF830
:10CD5000004055464E689C43B60300D51C432C60EA
:10CD6000DBF800405D464E689C43F60200D51C434C
:10CD70002C60DEF8004075464E689C43B60200D534
:10CD80001C432C60521C102AFFF455AFBDE8F88FED
:10CD9000003C0140443802400030014000000240A5
:10CDA0000004024000080240000C02400010024053
:10CDB0000069084000D0012070470AB181617047C6
:10CDC0000904FBE701480068704700008408002060
:10CDD00002480168491C0160704700008408002077
:10CDE0000B4810B5016841F400710160016841F41D
:10CDF00080610160016841F480710160032000F0EE
:10CE00007BF80F2000F006F800F014F8002010BDA9
:10CE1000003C024010B5044600F0BEF96421B0FBAE
:10CE2000F1F000F095FE00222146501E00F044F87B
:10CE3000002010BD10B5032000F05EF8002211465E
:10CE40006FF00B0000F038F8002211466FF00A0076
:10CE500000F032F8002211466FF0090000F02CF8C3
:10CE600000221146501F00F027F800221146101F23
:10CE700000F022F800220F21901E00F01DF8002281
:10CE80000F21BDE81040501E00F016B800F01F0240
:10CE9000012191404009800000F1E020C0F880119C
:10CEA000704700F01F02012191404009800000F10D
:10CEB000E020C0F800117047F0B40E4B1B68C3F3BC
:10CEC0000223C3F10704042C00D904241D1D072DDF
:10CED00001D2002300E0DB1E012606FA04F56D1ED8
:10CEE0000D409D409E40761E164045EA0601F0BC6E
:10CEF00001F072B90CED00E0064A00F0070110687D
:10CF00004FF6FF03184040EA012003490843106030
:10CF1000704700000CED00E00000FA052DE9F84331
:10CF2000044600684FF00109C1074FF0000501D128
:10CF3000400726D5DFF81881C8F86850FFF742FF90
:10CF40000646444F04E0FFF73DFF801B022857D8F8
:10CF500038680001F7D46068217A800140EA0171E5
:10CF60003C4884300160C8F86890FFF72BFF064604
:10CF700004E0FFF727FF801B022841D83868000132
:10CF8000F7D52078800752D532484030016841F00B
:10CF9000805101600068304F00F080500090386888
:10CFA00040F480703860FFF70DFF064604E0FFF79D
:10CFB00009FF801B022823D83868C005F7D5254E05
:10CFC0007036306810F4407020D0A18901F44071AF
:10CFD00081421BD03068214920F44070C1F8009094
:10CFE0000D6030603068C00710D0FFF7EBFE0546DB
:10CFF00041F2883707E0FFF7E5FE401BB84202D94F
:10D000000320BDE8F88330688007F4D5E068114953
:10D01000C0F301220831032A12D0086820F4F81066
:10D0200008603068A189C1F30B01084330602078A3
:10D03000000703D50A49207CC1F8E0010020E0E7A1
:10D040000A68084B22F4F812184002430A60E8E725
:10D05000000047420038024000700040400E474246
:10D0600000104742FFFCFF0F2DE9F0470D4604007A
:10D0700065D0DFF81491D9F80000EFB200F00F008E
:10D08000A84207D289F80070D9F8000000F00F001C
:10D09000A84254D120683D4E810712D5400703D5E0
:10D0A000306840F4E05030602078000703D53068E5
:10D0B00040F4604030603068A16820F0F000084320
:10D0C00030602078C0072DD03049606808390128C9
:10D0D00012D0022813D0032811D00968890700292B
:10D0E0002DDA316821F0030101433160FFF76AFE58
:10D0F000804641F2883A0EE009688903EFE7096843
:10D100008901ECE7FFF75EFEA0EB0801514502D96B
:10D110000320BDE8F0873068616800F00C00B0EBD8
:10D12000810FEFD1D9F80010484601F00F01A94254
:10D1300007D90770006800F00F00A84201D0012055
:10D14000E7E72078400705D53068E16820F4E05033
:10D15000084330602078000706D53068216920F444
:10D16000604040EAC100306000F03CF83168084A95
:10D17000C1F30311515CC840064908600F20FFF756
:10D1800049FE0020C5E70000003C0240083802408C
:10D19000F040020880080020014800687047000045
:10D1A000800800200448054900680968044AC1F362
:10D1B0008221515CC8407047800800200838024036
:10D1C000004102080448054900680968044AC1F39F
:10D1D0004231515CC8407047800800200838024046
:10D1E00000410208154810B5006810F00C01144801
:10D1F00013D0431004290FD008290ED10F4C241F3F
:10D20000216801F03F022168490207D52068C0F378
:10D210008810A0FB030106E0184610BD2168C1F389
:10D220008811A1FB00010023FBF748F92168C1F335
:10D230000141491C4900B0FBF1F010BD0838024023
:10D240000024F4002DE9F84F04006ED02078DFF8B8
:10D25000C4A2B14DC00748D0DAF800105046C1F35F
:10D260008101012908D00068C0F3810002280AD199
:10D27000281D0068400206D52868800335D56068FF
:10D280000028E2D031E06068B0F5803F10D0B0F502
:10D29000A02F286810D020F480302860286820F45F
:10D2A000802028606068A0B1FFF78CFD06460CE086
:10D2B000286840F48030F4E740F480202860F7E7E5
:10D2C000FFF780FD801B642873D828688003F7D59A
:10D2D0000BE0FFF777FD064604E0FFF773FD801BC8
:10D2E0006428F1D828688003F7D42078DFF82C82EE
:10D2F00080074FF0010B4FF000093DD5DAF8001020
:10D30000504611F00C0F09D00068C0F381000228CC
:10D310000CD18048001F0068400207D428688007AD
:10D3200014D5E068012800D110E0F1E0E068A8B170
:10D33000C8F800B0FFF746FD064604E0FFF742FDDF
:10D34000801B022835D828688007F7D5286821690E
:10D3500020F0F80040EAC10028600DE0C8F8009015
:10D36000FFF730FD064604E0FFF72CFD801B022886
:10D370001FD828688007F7D42078000722D5654F8A
:10D38000674861696C3771B1C0F800B0FFF71AFDEA
:10D39000064604E0FFF716FD801B022809D838680E
:10D3A0008007F7D50EE0C0F80090FFF70BFD0646AA
:10D3B00005E082E0FFF706FD801B02287DD8386873
:10D3C0008007F7D42078400750D55248383001689C
:10D3D00041F0805101600068524F00F08050009091
:10D3E000386840F480703860FFF7ECFC064604E0D3
:10D3F000FFF7E8FC801B02285FD83868C005F7D526
:10D40000444FA068683701280FD00528386810D02D
:10D4100020F001003860386820F004003860A0680F
:10D42000B0B1FFF7CFFC06460EE0386840F00100CF
:10D43000F4E740F004003860F7E7FFF7C3FC811B16
:10D4400041F2883081425BD838688007F5D50DE01D
:10D45000FFF7B8FC064606E0FFF7B4FC811B41F27B
:10D46000883081424CD838688007F5D4A06928B349
:10D47000DAF80010C1F38101022949D00228484698
:10D4800005D0C8F86000FFF79DFC04463BE0474626
:10D49000C8F86000FFF796FC064604E0FFF792FC30
:10D4A000801B02282CD828688001F7D4D4E9070112
:10D4B0000843A16A1C4A490801E021E026E002EB8A
:10D4C0000141626A41EA8211084394F82C1040EA53
:10D4D00001611048001F0160C7F860B0FFF772FCDF
:10D4E000044604E0FFF76EFC001B022808D82868F9
:10D4F0008001F7D50AE0FFF765FC001B022802D97E
:10D500000320BDE8F88F28688001F4D40020F8E7F4
:10D510000120F6E708380240003802400000474288
:10D52000800E4742007000400000FFFF006850304E
:10D5300050F8210070470068503040F821207047B3
:10D540002DE9F8478946017F924601292AD0012515
:10D550000577022141770268CA215162016853228E
:10D560004A6201688A68334F52054FF000033F68F2
:10D570004FF0FF044FF003064FF4FA4C15D5B7FBFC
:10D58000FCF24FF47A7802FB08F20092B2F1010843
:10D59000CDF8008001D24C6217E0CA68520704D56A
:10D5A0004246F3E70220BDE8F8878A6822F48062E9
:10D5B0008A60B7FBFCF14FF47A7251430091026824
:10D5C00000994F1E009704D25462467703770320D8
:10D5D000E9E7D1684907F3D5C2F8149001688A6871
:10D5E00022F007028A6001688A6842EA0A028A60B9
:10D5F00011490A6842F480020A600F4908310A683A
:10D6000042F480020A600168CA6802F0800262F493
:10D610009062CA6001688A6842F480428A60016848
:10D620008A6842F480628A6001684C6245770377B9
:10D630000020B8E780080020003C01400248082193
:10D6400000680DF067BF00007807002010B50446A1
:10D650000068C16849050CD58068400409D520469A
:10D66000FFF7ECFF2068C16801F0800161F4906170
:10D67000C16003494FF4800008600120607710BD4D
:10D68000143C014010B500680B4641680D4801404C
:10D69000080CD870C1F304245C7001F03F049C7046
:10D6A000C1F34231197052B900F0A6FDD870587814
:10D6B00000F0A2FD5870987800F09EFD9870002050
:10D6C00010BD00003FFFFF0010B50B460168896ADE
:10D6D000596001680969C1F30E0199600068016829
:10D6E0000E480140C1F305401870C1F306245C7078
:10D6F00001F07F049C70402404EA1141D97052B9B2
:10D7000000F07AFD1870587800F076FD587098781F
:10D7100000F072FD9870002010BD00007F7F7F0038
:10D7200070B5040002D0607F10B106E0012070BD2A
:10D7300000202077204600F049F802206077216819
:10D74000CA204862216853204862204600F068FDE4
:10D75000FF25042618BB206881681B4A11408160A0
:10D760002068816862681143D4E904231A43114395
:10D7700081602168E068086120680169228941EAC6
:10D78000024101612068C16821F08001C160206808
:10D790008068800607D4204600F00CF918B1206894
:10D7A00045626677C2E72068016C21F4802101643C
:10D7B0002068016CA2691143016420684562012060
:10D7C0006077002070BD0000BFFF8FFF10B50068BC
:10D7D000084988420CD108490120086000220E2126
:10D7E0000320FFF769FBBDE810400320FFF759BB9A
:10D7F00010BD0000002800403C0E47422DE9F047D4
:10D800000446007F0B4601281FD04FF0010984F821
:10D810001C9002206077DAB19878D97840EA014507
:10D8200058781978000240EA413005432168CA203F
:10D830004862216853204862204600F0F1FC00262F
:10D84000FF274FF0040860BB1AE00220BDE8F08714
:10D850005878C10603D500F0EF000A305870D87828
:10D8600000F0D3FC0204587800F0CFFC42EA00221A
:10D87000987800F0CAFC0243187842EA4035D5E7B0
:10D880000F480540206845602068C16821F080018C
:10D89000C1602068806880060AD4204600F08AF8BB
:10D8A00030B12068476284F81D8026770120CDE7DB
:10D8B0002068476284F81D9026770020C6E70000A4
:10D8C0003FFFFF002DE9F0470446007F0D46012889
:10D8D00011D04FF0010A84F81CA002206077206864
:10D8E000002680684FEA406042B100281ADA2878A2
:10D8F00000F082FC17E00220BDE8F087002800DB82
:10D90000EE70287800F081FC0204687800F07DFC5D
:10D9100042EA0022A87800F078FC0243E87842EA64
:10D9200000470AE0EE70A878297840EA0147687855
:10D93000E978000240EA014007432168CA204862B2
:10D94000216853204862204600F06AFC4FF0FF082F
:10D950004FF00409E0B916480740206807602068C6
:10D96000816821F480218160D5E90310014320689A
:10D970008268114381602068C16821F08001C16024
:10D980002068806880060BD4204600F013F838B178
:10D990002168C1F8248084F81D9026770120ABE728
:10D9A0002168C1F8248084F81DA026770020A3E711
:10D9B0007F7F7F0070B505460068C16821F0A00137
:10D9C000C160FFF7FFF904464FF47A7606E0FFF7EF
:10D9D000F9F9001BB04201D9032070BD2868C06866
:10D9E0008006F4D5002070BD70B5040005D0002578
:10D9F000A56294F8510010B106E0012070BD84F8D2
:10DA00005050204600F030F8022084F85100206881
:10DA1000016821F040010160D4E901010843D4E923
:10DA200003121143084361690843218B01F400711B
:10DA30000843E1690843216A0843A16A0843216851
:10DA40000860A069042101EA1040616A0843216866
:10DA500048602068C16921F40061C16165650120E9
:10DA600084F85100002070BDF0B50068314A0023F1
:10DA7000314902240325052687B090421AD12E4849
:10DA80001430026842F480520260006800F4805052
:10DA90000590086840F001000860086802AA00F0DC
:10DAA00001000590E020CDE9000482E868006946A5
:10DAB00022481CE0204A224F1032B8421BD1106885
:10DAC00040F480401060106800F4804005900868C1
:10DAD00040F0020008600868694600F00200059006
